:100000000C9463000C948B000C948B000C946C0388
:100010000C946C030C946C030C948B000C948B006C
:100020000C948B000C948B000C948B000C948B0024
:100030000C948B000C948B000C948B000C948B0014
:100040000C94CA020C948B000C943A030C94140385
:100050000C948B000C948B000C948B000C948B00F4
:100060000C948B000C948B0000000008000201002F
:100070000003040700000000000000000000000072
:10008000250028002B0000000000240027002A0083
:1000900000000000230026002900040404040404D6
:1000A0000404020202020202030303030303010227
:1000B00004081020408001020408102001020408F6
:1000C0001020E6033F0611241FBECFEFD8E0DEBFAD
:1000D000CDBF11E0A0E0B1E0E2E1FDE002C005909B
:1000E0000D92A236B107D9F722E0A2E6B1E001C035
:1000F0001D92AD36B207E1F710E0C2E6D0E004C0D1
:100100002197FE010E947106C136D107C9F70E94EE
:10011000C8040C947C060C94000090E0FC01E859A3
:10012000FF4F3491FC01E255FF4F2491FC01E6564C
:10013000FF4FE491EE2309F43BC0332339F1333010
:1001400091F038F43130A9F0323001F584B58F7D6B
:1001500012C0373091F03830A1F03430B9F48091CA
:1001600080008F7D03C0809180008F778093800016
:100170000DC084B58F7784BD09C08091B0008F77A2
:1001800003C08091B0008F7D8093B000F0E0EE0F4F
:10019000FF1FE458FF4FA591B4918FB7F894EC91ED
:1001A000611103C020952E2301C02E2B2C938FBFED
:1001B0000895CF92DF92EF92FF920F931F93CF9308
:1001C000DF936C017A018B01C0E0D0E0CE15DF0532
:1001D00089F0D8016D918D01D601ED91FC910190CE
:1001E000F081E02DC6010995892B11F47E0102C032
:1001F0002196ECCFC701DF91CF911F910F91FF9016
:10020000EF90DF90CF900895FC01538D448D252F02
:1002100030E0842F90E0821B930B541710F0CF96A0
:10022000089501970895FC01918D828D981761F0D2
:10023000828DDF01A80FB11D5D968C91928D9F5F1D
:100240009F73928F90E008958FEF9FEF0895FC01C8
:10025000918D828D981731F0828DE80FF11D858D7B
:1002600090E008958FEF9FEF0895FC01918D228D0E
:10027000892F90E0805C9F4F821B91098F73992793
:10028000089581EB91E00E94350121E0892B09F46A
:1002900020E0822F0895FC01848DDF01A80FB11D9D
:1002A000A35ABF4F2C91848D90E001968F739927AC
:1002B000848FA689B7892C93A089B1898C91806499
:1002C0008C93938D848D981306C00288F389E02D5A
:1002D00080818F7D80830895EF92FF920F931F930B
:1002E000CF93DF93EC0181E0888F9B8D8C8D9813E9
:1002F00005C0E889F989808185FD24C0F62E0B8D23
:1003000010E00F5F1F4F0F731127E02E8C8DE81246
:100310000CC00FB607FCFACFE889F989808185FF08
:10032000F5CFCE010E944B01F1CF8B8DFE01E80F7E
:10033000F11DE35AFF4FF0820B8FEA89FB89808120
:10034000806207C0EE89FF896083E889F98980812E
:100350008064808381E090E0DF91CF911F910F91C5
:10036000FF90EF900895CF93DF93EC01888D882361
:10037000C9F0EA89FB89808185FD05C0A889B98912
:100380008C9186FD0FC00FB607FCF5CF808185FFED
:10039000F2CFA889B9898C9185FFEDCFCE010E945B
:1003A0004B01E7CFDF91CF91089580E090E0892B5A
:1003B00029F00E94410181110C94000008952091C0
:1003C000A4013091A5012817390771F49091A20179
:1003D0008091A301981741F0E091A201F0E0EE595D
:1003E000FE4F808190E008958FEF9FEF089508956C
:1003F0001F93CF93DF93DC015C962D913C915D9729
:100400002115310539F481E090E013969C938E9389
:1004100012973DC05196ED91FC91529750969C9148
:100420005097892F80951FB75E964C915E9741FB40
:10043000772770F941FD6095F8944081772311F09A
:10044000492B01C048234083E9012197F1F748E097
:10045000508160FF02C0592B01C058235083E9012D
:100460002197F1F76695415099F7772321F0908114
:100470008923808303C08081982B90831FBF5C9663
:100480008D919C915D970197F1F721E030E0C901D2
:10049000DF91CF911F9108952091A4013091A50182
:1004A0002817390771F48091A3012091A20190E0EF
:1004B000805C9F4F821B910960E470E00E944906B6
:1004C000089580E090E008952091A4013091A50165
:1004D00028173907B9F49091A2018091A3019817C8
:1004E00089F0E091A201F0E0EE59FE4F8081209169
:1004F000A20130E02F5F3F4F2F7333272093A201DB
:1005000090E008958FEF9FEF0895E091A401F0919E
:10051000A501E817F90769F4A389B4899C91858935
:10052000809589238C931092A5011092A40181E0FB
:10053000089580E00895089580E090E008950E9475
:1005400077066115710579F0FB0101900020E9F74C
:100550003197AF01461B570BDC01ED91FC910280F6
:10056000F381E02D099480E090E008950F931F93AC
:10057000CF93DF93EC010E94A1028C0164E271E051
:10058000CE010E94A102800F911FDF91CF911F9198
:100590000F9108951F920F920FB60F9211242F936F
:1005A0003F938F939F93AF93BF938091AD019091B1
:1005B000AE01A091AF01B091B0013091AC0123E048
:1005C000230F2D3720F40196A11DB11D05C026E88B
:1005D000230F0296A11DB11D2093AC018093AD01A4
:1005E0009093AE01A093AF01B093B0018091A801A8
:1005F0009091A901A091AA01B091AB010196A11D12
:10060000B11D8093A8019093A901A093AA01B09372
:10061000AB01BF91AF919F918F913F912F910F901F
:100620000FBE0F901F9018951F920F920FB60F924A
:1006300011242F933F934F935F936F937F938F93E7
:100640009F93AF93BF93EF93FF9381EB91E00E9451
:100650004B01FF91EF91BF91AF919F918F917F914E
:100660006F915F914F913F912F910F900FBE0F901F
:100670001F9018951F920F920FB60F9211242F936F
:100680008F939F93EF93FF93E091C101F091C2018B
:100690008081E091C701F091C80182FD12C0908174
:1006A0008091CA018F5F8F732091CB01821751F027
:1006B000E091CA01F0E0EF54FE4F958F8093CA019C
:1006C00001C08081FF91EF919F918F912F910F90A9
:1006D0000FBE0F901F9018951F920F920FB60F929A
:1006E00011242F933F934F935F936F937F938F9337
:1006F0009F93AF93BF93EF93FF93E091A401F09189
:10070000A501309709F451C0968DA685B7858585DA
:1007100091FF04C09C91892329F447C09C918923AF
:1007200009F043C0A389B4899C9185898095892368
:100730008C93868997890197F1F7608D718DA685D5
:10074000B785558538E020E0CB010197F1F7822F7E
:1007500090E095958795282F4C91452309F02068C6
:10076000315091F7868D81FD20958091A30190E015
:1007700001968F7399273091A201381749F0A09103
:10078000A301B0E0AE59BE4F2C938093A30103C0E8
:10079000868D8160868F828D938D0197F1F7A38975
:1007A000B4899C918589892B8C93FF91EF91BF919E
:1007B000AF919F918F917F916F915F914F913F91F9
:1007C0002F910F900FBE0F901F901895CF93DF932E
:1007D0001092B4011092B30188EE93E0A0E0B0E073
:1007E0008093B5019093B601A093B701B093B8017F
:1007F00024E031E03093B2012093B10125EC30E0E8
:100800003093BE012093BD0124EC30E03093C00151
:100810002093BF0120EC30E03093C2012093C1014E
:1008200021EC30E03093C4012093C30122EC30E08E
:100830003093C6012093C50126EC30E03093C80107
:100840002093C7011092CA011092CB011092CC01E3
:100850001092CD01109251021092500280935202D8
:1008600090935302A0935402B093550286E191E015
:1008700090934F0280934E02109265021092640290
:10088000109267021092660210926902109268023A
:1008900010926B0210926A0260916C026E7F6D7F03
:1008A00060936C026695617081E068278BE00E941E
:1008B0008D00E9EBF0E02491E5EAF0E084918823F3
:1008C00099F090E0880F991FFC01EA57FF4FA5911E
:1008D000B491FC01E458FF4F859194918FB7F8943F
:1008E000EC91E22BEC938FBFE9EBF0E0E491E09325
:1008F0005E02E5EAF0E0E491F0E0EE0FFF1FE4585D
:10090000FF4F859194919093600280935F02E8EB92
:10091000F0E02491E4EAF0E084918823C1F090E0D3
:10092000880F991FFC01EA57FF4FC591D491FC0134
:10093000E458FF4FA591B4919FB7F8948881E22FB6
:10094000E0958E2388838C91E823EC939FBF809160
:100950006C0281FD04C061E08AE00E948D008AE0A3
:1009600080935A02E8EBF0E0E491E0935B02E4EA62
:10097000F0E0E491F0E0EE0FFF1FE057FF4F8591AC
:10098000949190935D0280935C02DF91CF910895E2
:10099000789484B5826084BD84B5816084BD85B55A
:1009A000826085BD85B5816085BD80916E00816066
:1009B00080936E001092810080918100826080930C
:1009C000810080918100816080938100809180000E
:1009D0008160809380008091B10084608093B10039
:1009E0008091B00081608093B00080917A00846033
:1009F00080937A0080917A00826080937A0080915F
:100A00007A00816080937A0080917A008068809378
:100A10007A001092C100E091C101F091C20182E020
:100A20008083E091C101F091C2011082E091BD018B
:100A3000F091BE011082E091BF01F091C00180E110
:100A400080831092C901E091C501F091C60186E052
:100A50008083E091C301F091C40180818061808333
:100A6000E091C301F091C401808188608083E091AE
:100A7000C301F091C401808180688083E091C3014B
:100A8000F091C40180818F7D808367E271E081EB0A
:100A900091E00E94B60210926902109268021092D0
:100AA00067021092660210926502109264028EE351
:100AB00093E090936B0280936A0290915A02963170
:100AC00008F057C02DE831E03093650220936402AE
:100AD0002CE333E0309367022093660224E632E091
:100AE000309369022093680220916800983050F09A
:100AF00031E09E3008F430E081E001C0880F3A9583
:100B0000EAF701C084E0822B80936800983038F0C7
:100B10009E3040F0963148F020E030E008C02DE6ED
:100B200030E005C02BE630E002C02CE630E0309328
:100B3000620220936102983030F481E001C0880F96
:100B40009A95EAF70EC0292F30E09E3018F428500D
:100B5000310902C02E50310981E001C0880F2A9569
:100B6000EAF78093630280916A0290916B02019789
:100B7000F1F78091680290916902892B21F18091AF
:100B8000A4019091A50122E08E349207E1F0009734
:100B900011F00E94850280916C028E7F80936C021E
:100BA0001092A3011092A2018EE492E09093A5010D
:100BB0008093A401E0916102F091620290818091A2
:100BC0006302892B808367E371E08EE492E00E94E8
:100BD000B6028EE492E00E944C02892BF1F18EE481
:100BE00092E00E9464029093A7018093A60183364D
:100BF0009105B1F04CF48136910579F0823691057A
:100C0000B9F461E083E00EC08436910571F0853659
:100C1000910571F461E086E005C061E082E002C008
:100C200061E084E00E948D000FC061E085E0FACFB2
:100C300065E471E081EB91E00E94B60265E471E049
:100C40008EE492E00E94A1028EE492E00E9464028F
:100C5000682F81EB91E00E946C0181EB91E00E9492
:100C60003501892B49F081EB91E00E941301682F37
:100C70008EE492E00E94F8010E94D501AACF86E19D
:100C800091E090934F0280934E028EE492E00C9498
:100C9000850297FB072E16F4009407D077FD09D044
:100CA0000E945D0607FC05D03EF4909581959F4F0C
:100CB0000895709561957F4F0895AA1BBB1B51E164
:100CC00007C0AA1FBB1FA617B70710F0A61BB70BBC
:100CD000881F991F5A95A9F780959095BC01CD0161
:100CE0000895EE0FFF1F0590F491E02D099481E027
:100CF00090E0F8940C947C0610E0C2E6D0E004C0CA
:100D0000FE010E9471062196C336D107C9F7F894F7
:020D1000FFCF13
:100D1200000000006C01D9000401B3013501130188
:100D2200270100000000F801D9009C02F7014C02E3
:100D32006402DF010D0A00476F6F646E69676874B1
:100D4200206D6F6F6E210048656C6C6F2C20776F81
:100D5200726C643F00756E6B6E6F7720636F6D6DA2
:100D6200616E64212120636865636B20616761693C
:020D72006E0011
:00000001FF
