:100000000C9483000C94B4000C94B4000C94B400D1
:100010000C94B4000C94B4000C94B4000C94B40090
:100020000C94B4000C94B4000C94B4000C94B40080
:100030000C94B4000C94B4000C94B4000C94B40070
:100040000C94B4000C94B4000C94B4000C94B40060
:100050000C94B4000C94B4000C94B4000C94F10112
:100060000C94B4000C9465020C943B020C94B40004
:100070000C94B4000C94B4000C94B4000C94B40030
:100080000C94B4000C94B4000C94B4000C94B40020
:100090000C94B4000C94B4000C94B4000C94B40010
:1000A0000C94B4000C94B4000C94B4000C94B40000
:1000B0000C94B4000C94B4000C94B4000C94B400F0
:1000C0000C94B4000C94B4000C94B4000C94B400E0
:1000D0000C94B4000C94B4000C94B4000C94B400D0
:1000E0000C94B4000C94B6000C9453030C94E500EB
:1000F0000C9494010C9416010C944D010C9408017D
:100100000C94F400530311241FBECFEFD1E2DEBFE5
:10011000CDBF00E00CBF12E0A0E0B2E0EEE1F7E0FE
:1001200000E00BBF02C007900D92A632B107D9F7CD
:1001300022E0A6E2B2E001C01D92AC3CB207E1F7BA
:1001400010E0C3E8D0E000E006C021970109802F4D
:10015000FE010E948003C238D10780E00807A9F79A
:100160000E949B020C948D030C940000CF92DF92AE
:10017000EF92FF920F931F93CF93DF936C017A015D
:100180008B01C0E0D0E0CE15DF0589F0D8016D917C
:100190008D01D601ED91FC910190F081E02DC60119
:1001A0001995892B11F47E0102C02196ECCFC7016D
:1001B000DF91CF911F910F91FF90EF90DF90CF9043
:1001C0000895089580E090E00895FC01538D448DDA
:1001D000252F30E0842F90E0821B930B541710F0F2
:1001E000CF96089501970895FC01918D828D9817FF
:1001F00061F0828DDF01A80FB11D5D968C91928D0B
:100200009F5F9F73928F90E008958FEF9FEF089507
:10021000FC01918D828D981731F0828DE80FF11DD0
:10022000858D90E008958FEF9FEF0895FC01918DEB
:10023000228D892F90E0805C9F4F821B91098F73E4
:100240009927089586E292E00E94160121E0892B09
:1002500009F420E0822F0895FC01848DDF01A80FAE
:10026000B11DA35ABF4F2C91848D90E001968F73DE
:100270009927848FA689B7892C93A089B1898C91FD
:1002800080648C93938D848D981306C00288F389C3
:10029000E02D80818F7D80830895EF92FF920F93F0
:1002A0001F93CF93DF93EC0181E0888F9B8D8C8D22
:1002B000981305C0E889F989808185FD24C0F62E50
:1002C0000B8D10E00F5F1F4F0F731127E02E8C8DE9
:1002D000E8120CC00FB607FCFACFE889F9898081D3
:1002E00085FFF5CFCE010E942C01F1CF8B8DFE0151
:1002F000E80FF11DE35AFF4FF0820B8FEA89FB896B
:100300008081806207C0EE89FF896083E889F9896E
:1003100080818064808381E090E0DF91CF911F91A4
:100320000F91FF90EF900895CF93DF93EC01888DAC
:100330008823C9F0EA89FB89808185FD05C0A889E9
:10034000B9898C9186FD0FC00FB607FCF5CF80816F
:1003500085FFF2CFA889B9898C9185FFEDCFCE01B9
:100360000E942C01E7CFDF91CF91089580E090E0CB
:10037000892B21F00E942201811125C080E090E0AC
:10038000892B41F080E090E0892B21F00E94000051
:1003900081111CC080E090E0892B41F080E090E06A
:1003A000892B21F00E940000811113C080E090E0B1
:1003B000892BA1F080E090E0892B81F00E94000061
:1003C00081110AC008950E940000D8CF0E94000049
:1003D000E1CF0E940000EACF0C94000008950E9433
:1003E00088031F920F920FB60F9211242F933F9301
:1003F0008F939F93AF93BF938091C8029091C9024E
:10040000A091CA02B091CB023091C70223E0230F22
:100410002D3720F40196A11DB11D05C026E8230F3C
:100420000296A11DB11D2093C7028093C80290932C
:10043000C902A093CA02B093CB028091C3029091EB
:10044000C402A091C502B091C6020196A11DB11DC2
:100450008093C3029093C402A093C502B093C602D6
:10046000BF91AF919F918F913F912F910F900FBEB0
:100470000F901F9018951F920F920FB60F92112494
:100480000BB60F922F933F934F935F936F937F938E
:100490008F939F93AF93BF93EF93FF9386E292E086
:1004A0000E942C01FF91EF91BF91AF919F918F918D
:1004B0007F916F915F914F913F912F910F900BBE64
:1004C0000F900FBE0F901F9018951F920F920FB6AE
:1004D0000F9211240BB60F922F938F939F93EF934C
:1004E000FF93E0913602F09137028081E0913C0267
:1004F000F0913D0282FD12C0908180913F028F5F9A
:100500008F7320914002821751F0E0913F02F0E09A
:10051000EA5DFD4F958F80933F0201C08081FF917E
:10052000EF919F918F912F910F900BBE0F900FBE67
:100530000F901F901895789484B5826084BD84B51F
:10054000816084BD85B5826085BD85B5816085BDCE
:1005500080916E00816080936E0010928100809186
:10056000810082608093810080918100816080930E
:100570008100809180008160809380008091B10033
:1005800084608093B1008091B00081608093B0005E
:1005900080919100826080939100809191008160B0
:1005A0008093910080919000816080939000809171
:1005B000A10082608093A1008091A100816080935E
:1005C000A1008091A00081608093A0008091210112
:1005D00082608093210180912101816080932101BB
:1005E0008091200181608093200180917A00846055
:1005F00080937A0080917A00826080937A00809163
:100600007A00816080937A0080917A00806880937C
:100610007A001092C100E0913602F091370282E038
:100620008083E0913202F09133021082E091340233
:10063000F09135028FEC808310923E02E0913A02F5
:10064000F0913B0286E08083E0913802F09139021C
:10065000808180618083E0913802F091390280814D
:1006600088608083E0913802F0913902808180684F
:100670008083E0913802F091390280818F7D808300
:100680004FE050E062E172E086E292E00E94B60044
:1006900042E050E062E272E086E292E00E94B60040
:1006A0000E94B601FDCFE6E2F2E01382128288EEEC
:1006B00093E0A0E0B0E084839583A683B78384E0D1
:1006C00092E09183808385EC90E09587848784EC29
:1006D00090E09787868780EC90E0918B808B81EC0F
:1006E00090E0938B828B82EC90E0958B848B86ECF0
:1006F00090E0978B868B118E128E138E148E089538
:10070000EE0FFF1F881F8BBF0790F691E02D199405
:0E07100081E090E0F8940C948D03F894FFCFF4
:10071E00000000004D01B600E50094011601F40042
:10072E00080152656D6F7465204E524632344C305E
:06073E0031000D0A00006D
:00000001FF
